{
  "_format": "hh-sol-artifact-1",
  "contractName": "Authorizable",
  "sourceName": "contracts/Authorizable.sol",
  "abi": [
    {
      "anonymous": false,
      "inputs": [
        {
          "indexed": true,
          "internalType": "address",
          "name": "previousOwner",
          "type": "address"
        },
        {
          "indexed": true,
          "internalType": "address",
          "name": "newOwner",
          "type": "address"
        }
      ],
      "name": "OwnershipTransferred",
      "type": "event"
    },
    {
      "inputs": [
        {
          "internalType": "address",
          "name": "_address",
          "type": "address"
        }
      ],
      "name": "addAuthorized",
      "outputs": [],
      "stateMutability": "nonpayable",
      "type": "function"
    },
    {
      "inputs": [
        {
          "internalType": "address",
          "name": "",
          "type": "address"
        }
      ],
      "name": "authorized",
      "outputs": [
        {
          "internalType": "bool",
          "name": "",
          "type": "bool"
        }
      ],
      "stateMutability": "view",
      "type": "function"
    },
    {
      "inputs": [],
      "name": "owner",
      "outputs": [
        {
          "internalType": "address",
          "name": "",
          "type": "address"
        }
      ],
      "stateMutability": "view",
      "type": "function"
    },
    {
      "inputs": [
        {
          "internalType": "address",
          "name": "_address",
          "type": "address"
        }
      ],
      "name": "removeAuthorized",
      "outputs": [],
      "stateMutability": "nonpayable",
      "type": "function"
    },
    {
      "inputs": [],
      "name": "renounceOwnership",
      "outputs": [],
      "stateMutability": "nonpayable",
      "type": "function"
    },
    {
      "inputs": [
        {
          "internalType": "address",
          "name": "newOwner",
          "type": "address"
        }
      ],
      "name": "transferOwnership",
      "outputs": [],
      "stateMutability": "nonpayable",
      "type": "function"
    }
  ],
  "bytecode": "0x608060405234801561001057600080fd5b5061002d61002261003260201b60201c565b61003a60201b60201c565b6100fe565b600033905090565b60008060009054906101000a900473ffffffffffffffffffffffffffffffffffffffff169050816000806101000a81548173ffffffffffffffffffffffffffffffffffffffff021916908373ffffffffffffffffffffffffffffffffffffffff1602179055508173ffffffffffffffffffffffffffffffffffffffff168173ffffffffffffffffffffffffffffffffffffffff167f8be0079c531659141344cd1fd0a4f28419497f9722a3daafe3b4186f6b6457e060405160405180910390a35050565b6106e18061010d6000396000f3fe608060405234801561001057600080fd5b50600436106100625760003560e01c8063485d7d9414610067578063715018a6146100835780638da5cb5b1461008d578063b9181611146100ab578063cf1c316a146100db578063f2fde38b146100f7575b600080fd5b610081600480360381019061007c919061050f565b610113565b005b61008b6101e7565b005b6100956101fb565b6040516100a2919061054b565b60405180910390f35b6100c560048036038101906100c0919061050f565b610224565b6040516100d29190610581565b60405180910390f35b6100f560048036038101906100f0919061050f565b610244565b005b610111600480360381019061010c919061050f565b6102df565b005b61011b610362565b600073ffffffffffffffffffffffffffffffffffffffff168173ffffffffffffffffffffffffffffffffffffffff160361015457600080fd5b3373ffffffffffffffffffffffffffffffffffffffff168173ffffffffffffffffffffffffffffffffffffffff160361018c57600080fd5b6000600160008373ffffffffffffffffffffffffffffffffffffffff1673ffffffffffffffffffffffffffffffffffffffff16815260200190815260200160002060006101000a81548160ff02191690831515021790555050565b6101ef610362565b6101f960006103e0565b565b60008060009054906101000a900473ffffffffffffffffffffffffffffffffffffffff16905090565b60016020528060005260406000206000915054906101000a900460ff1681565b61024c610362565b600073ffffffffffffffffffffffffffffffffffffffff168173ffffffffffffffffffffffffffffffffffffffff160361028557600080fd5b60018060008373ffffffffffffffffffffffffffffffffffffffff1673ffffffffffffffffffffffffffffffffffffffff16815260200190815260200160002060006101000a81548160ff02191690831515021790555050565b6102e7610362565b600073ffffffffffffffffffffffffffffffffffffffff168173ffffffffffffffffffffffffffffffffffffffff1603610356576040517f08c379a000000000000000000000000000000000000000000000000000000000815260040161034d9061061f565b60405180910390fd5b61035f816103e0565b50565b61036a6104a4565b73ffffffffffffffffffffffffffffffffffffffff166103886101fb565b73ffffffffffffffffffffffffffffffffffffffff16146103de576040517f08c379a00000000000000000000000000000000000000000000000000000000081526004016103d59061068b565b60405180910390fd5b565b60008060009054906101000a900473ffffffffffffffffffffffffffffffffffffffff169050816000806101000a81548173ffffffffffffffffffffffffffffffffffffffff021916908373ffffffffffffffffffffffffffffffffffffffff1602179055508173ffffffffffffffffffffffffffffffffffffffff168173ffffffffffffffffffffffffffffffffffffffff167f8be0079c531659141344cd1fd0a4f28419497f9722a3daafe3b4186f6b6457e060405160405180910390a35050565b600033905090565b600080fd5b600073ffffffffffffffffffffffffffffffffffffffff82169050919050565b60006104dc826104b1565b9050919050565b6104ec816104d1565b81146104f757600080fd5b50565b600081359050610509816104e3565b92915050565b600060208284031215610525576105246104ac565b5b6000610533848285016104fa565b91505092915050565b610545816104d1565b82525050565b6000602082019050610560600083018461053c565b92915050565b60008115159050919050565b61057b81610566565b82525050565b60006020820190506105966000830184610572565b92915050565b600082825260208201905092915050565b7f4f776e61626c653a206e6577206f776e657220697320746865207a65726f206160008201527f6464726573730000000000000000000000000000000000000000000000000000602082015250565b600061060960268361059c565b9150610614826105ad565b604082019050919050565b60006020820190508181036000830152610638816105fc565b9050919050565b7f4f776e61626c653a2063616c6c6572206973206e6f7420746865206f776e6572600082015250565b600061067560208361059c565b91506106808261063f565b602082019050919050565b600060208201905081810360008301526106a481610668565b905091905056fea26469706673582212203fdb5c4b1fa4010be856b2c3a2ab525eb30b70e704e51ffc848a49c3df88a25764736f6c63430008140033",
  "linkReferences": {},
  "deployedLinkReferences": {}
}